:0400000042EF0CF0CF
:1010000000009CEC0AF0290E486E79EC0BF0260EDD
:10101000466E3F0E476EF6EC09F04E6E230E466E9E
:101020003E0E476EF6EC09F04E6E3F50D8A41BEF13
:1010300008F01DEF08F02EEF08F0344A352AF50EBF
:10104000345C010E3558D8A028EF08F02AEF08F0DC
:1010500034EF08F0000E226E34EF08F0000E356E0B
:10106000000E346E010E226E21502218D8B43BEFD0
:1010700008F03DEF08F08DEF08F022C021F022507B
:10108000D8A445EF08F047EF08F067EF08F03950B3
:10109000D8A44DEF08F04FEF08F067EF08F0310EDD
:1010A000486EAEEC0BF0300E486EAEEC0BF02F0E2F
:1010B000486EAEEC0BF02E0E486EAEEC0BF0290E27
:1010C000486E44EC0BF0010E396E8DEF08F02250A3
:1010D000D8A46DEF08F06FEF08F08DEF08F0390439
:1010E000D8A475EF08F077EF08F08DEF08F0310E17
:1010F000486EE3EC0BF0300E486EE3EC0BF02F0E75
:10110000486EE3EC0BF02E0E486EE3EC0BF0290E6C
:10111000486E79EC0BF0000E396E3E50D8A493EF78
:1011200008F095EF08F0A6EF08F0324A332A335062
:1011300009E1C90E325CD8A0A0EF08F0A2EF08F0D8
:10114000ACEF08F0000E206EACEF08F0000E336E2E
:10115000000E326E010E206E1F502018D8B4B3EF6F
:1011600008F0B5EF08F007EF08F020C01FF020509E
:10117000D8A4BDEF08F0BFEF08F0D1EF08F02D0EB6
:10118000486EAEEC0BF02C0E486EAEEC0BF02B0E56
:10119000486EAEEC0BF02A0E486EAEEC0BF007EF8B
:1011A00008F02D0E486EE3EC0BF02C0E486EE3ECCD
:1011B0000BF02B0E486EE3EC0BF02A0E486EE3ECBE
:1011C0000BF007EF08F000EF00F0010E466E405004
:1011D000D8B4EDEF08F0EFEF08F0FFEF08F0405063
:1011E000D96EDA6ADF30E832E832070B416E070E5B
:1011F0004164FDEF08F0FFEF08F056EF09F0000E34
:10120000466E6CEF09F04050D96EDA6ADF30E83292
:10121000E832070B416E010E426E412A12EF09F0CF
:10122000D8904236412E10EF09F04250FF0A436E2B
:101230004050D96EDA6ADF50070B020DF350150FDC
:10124000D96EDA6ADECF44F0DDCF45F044C0D9FF75
:1012500045C0DAFF4350DF166CEF09F04050D96EFD
:10126000DA6ADF30E832E832070B416E010E426E77
:10127000412A3DEF09F0D8904236412E3BEF09F06C
:101280004050D96EDA6ADF50070B020DF350150F8C
:10129000D96EDA6ADECF43F0DDCF44F043C0D9FF28
:1012A00044C0DAFF4250DF126CEF09F04050D96EB3
:1012B000DA6ADFBC5EEF09F061EF09F0010E62EF60
:1012C00009F0000E000AD8B403EF09F0010AD8B4FF
:1012D0002EEF09F0FFEF08F046501200010E476EA6
:1012E0004050D8B476EF09F078EF09F088EF09F0B4
:1012F0004050D96EDA6ADF30E832E832070B426ECE
:10130000070E426486EF09F088EF09F0DFEF09F07D
:10131000000E476EF4EF09F04050D96EDA6ADF3004
:10132000E832E832070B426E010E436E422A9BEF11
:1013300009F0D8904336422E99EF09F04350FF0A46
:10134000446E4050D96EDA6ADF50070B020DF3503D
:101350000B0FD96EDA6ADECF45F0DDCF46F045C01F
:10136000D9FF46C0DAFF4450DF16F4EF09F04050D1
:10137000D96EDA6ADF30E832E832070B426E010ECE
:10138000436E422AC6EF09F0D8904336422EC4EF8E
:1013900009F04050D96EDA6ADF50070B020DF350A6
:1013A0000B0FD96EDA6ADECF44F0DDCF45F044C0D2
:1013B000D9FF45C0DAFF4350DF12F4EF09F0415086
:1013C000426E436A4350000AD8B4E9EF09F088EF4F
:1013D00009F04250000AD8B48CEF09F0010AD8B4E1
:1013E000B7EF09F088EF09F047501200000E4A6E7F
:1013F000010E496E4650D8B400EF0AF002EF0AF031
:101400000AEF0AF04750D8A408EF0AF00AEF0AF0F2
:101410000EEF0AF0000E496E4DEF0AF046C040F0A4
:101420004A0E416E4FEC0AF04650D96EDA6A020E4F
:10143000D926DF50D8A41FEF0AF021EF0AF036EFCB
:101440000AF04A04D8A427EF0AF029EF0AF02FEF98
:101450000AF04750D96EDA6ADF6A4DEF0AF047505A
:10146000D96EDA6A010EDF6E4DEF0AF04650D96E82
:10147000DA6A020ED926DE04D8A441EF0AF043EF5F
:101480000AF04DEF0AF04A04D8A449EF0AF04BEFF6
:101490000AF029EF0AF02FEF0AF0495012004050ED
:1014A000D8B455EF0AF057EF0AF06FEF0AF0415049
:1014B000D8B45DEF0AF05FEF0AF06FEF0AF040502A
:1014C000D96EDA6ADF30E832E832070B426E070E77
:1014D00042646DEF0AF06FEF0AF071EF0AF09BEFD4
:1014E0000AF04150D96EDA6A4050E16EE26AE730A4
:1014F000E832E832070B426E4050E16EE26AE75094
:10150000070B020DF350010FE16EE26AE6CF43F0E4
:10151000E5CF44F043C0E1FF44C0E2FFE750456E31
:10152000422A95EF0AF0D8904532422E93EF0AF006
:101530004550010BDF6E1200310E4A6E0CEC0BF0C1
:101540004E6E300E4A6E0CEC0BF04E6E2F0E4A6E45
:101550000CEC0BF04E6E2E0E4A6E0CEC0BF04E6E39
:101560002D0E4A6E0CEC0BF04E6E2C0E4A6E0CECEF
:101570000BF04E6E2B0E4A6E0CEC0BF04E6E2A0EDC
:101580004A6E0CEC0BF04E6E260E476E76EC0CF0AD
:101590004E6E230E476E76EC0CF04E6E290E4A6EA0
:1015A000D4EC0AF04E6E1200010E4C6E4A50D8A4D4
:1015B000DCEF0AF0DEEF0AF0E2EF0AF0000E4C6E0C
:1015C0000AEF0BF038C04DF04A50D96EDA6ADF509E
:1015D0000F0B4B6E4D504B18F80B4B184D6E4A507D
:1015E000D96EDA6ADF38070B4B6E4B464B464B46DB
:1015F0004D504B18C70B4B184D6E4D9C4A50D96E31
:10160000DA6ADFAE02D04D8E01D04D9E4D0E486E8F
:1016100018EC0CF04C501200010E4C6E4A50D8A43D
:1016200014EF0BF016EF0BF01AEF0BF0000E4C6EF0
:1016300042EF0BF03DC04DF04A50D96EDA6ADF50F0
:101640000F0B4B6E4D504B18F80B4B184D6E4A500C
:10165000D96EDA6ADF38070B4B6E4B464B464B466A
:101660004D504B18C70B4B184D6E4D9C4A50D96EC0
:10167000DA6ADFAE02D04D8E01D04D9E4D0E486E1F
:1016800018EC0CF04C5012004850D8A44AEF0BF064
:101690004CEF0BF04EEF0BF078EF0BF037C04AF049
:1016A0004850D96EDA6ADF500F0B496E4A5049181C
:1016B000F80B49184A6E4850D96EDA6ADF38070BC2
:1016C000496E4946494649464A504918C70B491888
:1016D0004A6E4A9C4850D96EDA6ADFAE02D04A8E12
:1016E00001D04A9E4A0E406E010E416E6EEC09F02A
:1016F00012004850D8A47FEF0BF081EF0BF083EF7E
:101700000BF0ADEF0BF036C04AF04850D96EDA6AF4
:10171000DF500F0B496E4A504918F80B49184A6EB2
:101720004850D96EDA6ADF38070B496E4946494698
:1017300049464A504918C70B49184A6E4A9C4850B6
:10174000D96EDA6ADFAE02D04A8E01D04A9E4A0EC6
:10175000406E000E416E6EEC09F012004850D8A4A5
:10176000B4EF0BF0B6EF0BF0B8EF0BF0E2EF0BF0CD
:101770003CC04AF04850D96EDA6ADF500F0B496E10
:101780004A504918F80B49184A6E4850D96EDA6A1F
:10179000DF38070B496E4946494649464A504918C1
:1017A000C70B49184A6E4A9C4850D96EDA6ADFAEB8
:1017B00002D04A8E01D04A9E4A0E406E010E416E02
:1017C0006EEC09F012004850D8A4E9EF0BF0EBEFF3
:1017D0000BF0EDEF0BF017EF0CF03BC04AF0485068
:1017E000D96EDA6ADF500F0B496E4A504918F80B70
:1017F00049184A6E4850D96EDA6ADF38070B496ECD
:101800004946494649464A504918C70B49184A6E45
:101810004A9C4850D96EDA6ADFAE02D04A8E01D0B7
:101820004A9E4A0E406E000E416E6EEC09F01200A8
:101830004850D8B41EEF0CF020EF0CF030EF0CF055
:101840004850D96EDA6ADF30E832E832070B496E69
:10185000070E49642EEF0CF030EF0CF032EF0CF075
:1018600041EF0CF048C040F0E5EC08F048C040F013
:101870004850D96EDA6A000EDFBE010E416E6EEC82
:1018800009F01200BA0EF66E180EF76E000EF86E22
:1018900000EE01F010EE31F00900F5CFEEFFE5505B
:1018A000E150FAE100EE32F00E0EEE6AE806FDE1DC
:1018B000000EF86E000101EF08F0800F810F820F1B
:1018C000830F840F890F8A0F8B0F8C0F8D0F920F50
:1018D000930F940F950F960F01010101CB01014366
:0B18E000010023726252423222120209
:1018EC004750D8A47CEF0CF07EEF0CF082EF0CF09C
:1018FC00000E486E87EF0CF047C040F0E5EC08F0A6
:06190C00486E4850120075
:020000040030CA
:0E000000FF021F1EFF8181FF0FC00FE00F40A7
:00000001FF
